:100000000C942D010C9455010C9455010C94550140
:100010000C9455010C9455010C94F2180C94550154
:100020000C9455010C9455010C9455010C94201A14
:100030000C9455010C9455010C9455010C945501E8
:100040000C9450180C9455010C94C0180C949A18E8
:100050000C9455010C9455010C9455010C945501C8
:100060000C9401190C94550100407A10F35A00A029
:10007000724E18090010A5D4E80000E87648170071
:1000800000E40B54020000CA9A3B000000E1F505B1
:10009000000080969800000040420F000000A086FB
:1000A00001000000102700000000E803000000002D
:1000B0006400000000000A000000000001000000D1
:1000C00000002C76D888DC674F0823DFC1DFAE59EB
:1000D000E1B1B796E5E3E453C63AE651997696E87E
:1000E000E6C28426EB898C9B62ED407C6FFCEFBC02
:1000F0009C9F40F2BAA56FA5F490055A2AF75C932D
:100100006B6CF9676DC11BFCE0E40D47FEF520E662
:10011000B500D0ED902E0300943577050080841E45
:10012000080000204E0A000000C80C333333330FA0
:10013000986E12831141EF8D2114893BE65516CF3D
:10014000FEE6DB18D1844B381BF77C1D901DA4BB49
:10015000E424203284725E228100C9F124ECA1E5FE
:100160003D2700C20100010005000500030000E179
:10017000000001000F000F000D00009600000200BB
:1001800019001A001700127A000007002000210051
:100190001D00807000000B00230023002000004B96
:1001A00000001400370037003400403800001E0003
:1001B0004B004B00480080250000320072007200A6
:1001C0007000C01200006E00E900E900E60060095E
:1001D0000000E500D801D801D501B0040000D3012A
:1001E000B403B403B1032C0100006707DD0EDD0E7C
:1001F000DA0E426F6F74004750532074696D6520AA
:100200006E6F742073657400000000080002010026
:1002100000030407000000000000000000000000D0
:10022000240027002A0000000000250028002B00E1
:10023000040404040404040402020202020203038C
:100240000303030301020408102040800102040894
:1002500010200102040810202F1A11241FBECFEF16
:10026000D8E0DEBFCDBF27E0A0EFB3E001C01D9214
:10027000A53FB207E1F713E0A0E0B1E0E0E0F6E669
:1002800002C005900D92A03FB107D9F711E0CDE271
:10029000D1E004C02197FE010E942C2DCC32D10761
:1002A000C9F70E94AE1C0C94FE320C9400006F92B1
:1002B0007F928F929F92AF92BF92CF92DF92EF92F6
:1002C000FF920F931F93CF93DF93C091F105AC2F53
:1002D000B0E020E833E341EE51E00E94802B4B0177
:1002E0005C01E2EBF7E09D01C4E6D0E000E911E03B
:1002F000CF01825B97408217930794F16090F005DD
:10030000712C2E54384FC90164E670E00E94F62C1F
:100310007C01C90160E971E00E94F62C6C010BECD4
:1003200011E0C1E0D0E0F901E370FF27C615D70561
:100330000CF03FC0C230D10569F5309759F5E11492
:10034000F10419F4C114D10429F5A0E88A0EABE335
:100350009A1EA6E2AA1EB11C21960F5F1F4FE6CF80
:10036000CF0183709927892B99F4CF01BE010E9498
:10037000F62C892B31F4CF01B8010E94F62C892B81
:1003800039F480E8880E81E5981E81E0A81EB11C32
:100390003196AECFD8018C91A82FB0E020E831E59E
:1003A00041E050E00E94802B860E971EA81EB91EC9
:1003B000D3CF2091ED0530E0A0E1BEE00E94C22B3A
:1003C0006B017C012091EC0530E0ACE3B0E00E94D1
:1003D000C22BC60ED71EE81EF91E8091EB05C80E73
:1003E000D11CE11CF11CA091EF05A150BB0B20E832
:1003F00031E541E050E00E94322D6C0D7D1D8E1DD7
:100400009F1D680D791D8A1D9B1DDF91CF911F9146
:100410000F91FF90EF90DF90CF90BF90AF909F90A3
:100420008F907F906F900895E2EFF5E0A089B189F9
:1004300082E08C93A485B5851C92A685B78587E656
:100440008C93108EA489B58986E08C93A289B38998
:100450008C9180618C93A289B3898C9188608C93F4
:10046000A289B3898C9180688C930288F389E02DEE
:1004700080818F7D80830895282F082E000C330BF8
:10048000205331092A30310510F480530895803209
:1004900031F09FEB980F9A3120F48753089584E24E
:1004A00008958FEF089580917A0490917B04891BC1
:1004B000990B08952F923F924F925F926F927F9285
:1004C0008F929F92AF92BF92CF92DF92EF92FF9264
:1004D0000F931F93CF93DF93CDB7DEB7AA970FB6D5
:1004E000F894DEBF0FBECDBF0D871D8B298F3A8FCD
:1004F0004B8F5C8F6F8F7BA3FE8EED8EE091130789
:10050000F0911407892B21F0E0911507F09116075F
:10051000FF27EE0FFF1FEE0FFF1FE95EF84F608110
:1005200071818281938124E630E040E050E00E94B6
:10053000922D522E632E742E852E962E7A8B898BB9
:10054000492E86017501110FEE08FE2C87019501D9
:10055000A6016E2D7E2D8E2D9E2D0FE10E945D2E0B
:10056000A12CEAECBE2EFAE9CF2EABE3DA2EE12C79
:10057000F12C00E010E00E94BF2DA52CB62CC72C5A
:10058000D82CE92CFA880989142D0E943A2D0FE104
:100590000E94782E29833A834B835C836D837E830C
:1005A0008F83988729813A814B815C81550F220B7B
:1005B000322FA90129873A874B875C87252D362D55
:1005C000472D582D692D7F2D8989942DA980BA80BA
:1005D000CB80DC80E984FE2C0E2D1E2D0E94932EF4
:1005E00029833987498B5A8B6B8B7C8B1C016D84DB
:1005F0007D88898C9A8C3C8D3D8B4F8C5BA09301C0
:10060000A4016B8D7D89C201211534404B46544FA6
:10061000644171058105910569F060F0612C24E069
:10062000722E3BE6832E44EF942EB4E1BB8F1D8ADD
:10063000412C512CEB8DEF8F9301A4016E2F7D89FE
:10064000C201211538454744584F6D407105810559
:10065000910560F4612C08E5702E87E4882E98EFF0
:10066000992E2DE02F8F1D8A412C512CA980B98401
:10067000C988DA88EB88FC8881019301A4016F8D19
:100680007D89C2010E94F02D298F3A8F4B8F5C8F9C
:100690002D873E874F87588B8D859E85AF85B8897E
:1006A0001FE0A12E0F97A105B10558F02D853E85BD
:1006B0004F8558892B35310541055105B8F0BAE50C
:1006C000AB2EB12CC12CD12CE12CF12C00E010E090
:1006D0002981398549895A896B897C89C1010E94A0
:1006E0003A2D39014A016F8F7D8B2C01A980B98485
:1006F000C988DA88EB88FC8881019301A4016F8D99
:100700007D89C2010E94EE2DE0E4AE2EF2E4BF2E00
:10071000AFE0CA2ED12CE12CF12C00E010E00E94B9
:100720003A2DA980B984C988DA88EB88FC888101D0
:100730000E94F02D49014CA35BA3C901DA0121E01D
:1007400030E040E050E00097A105B10521F020E441
:1007500032E44FE050E02D8B3E8B4F8B588FBC0125
:10076000CD0127E0660F771F881F991F2A95D1F7C3
:100770002D893E894F89588D0E940A2D29013A0101
:100780006F8F78A389A39AA3A980B984C988DA88CE
:10079000EB88FC88810194014CA15BA160E070E0D2
:1007A00080E090E00E943A2D2BA33CA34DA35EA3D2
:1007B0006FA378A789A79AA78D859E85AF85B889ED
:1007C00037E0880F991FAA1FBB1F3A95D1F79250A7
:1007D000A109B109840D951DA61DB71DED8DFE8DD6
:1007E00080839183A283B3832F8D38A149A15AA11D
:1007F00024833583468357832D893E894F89588DBD
:100800002087318742875387298D3A8D4B8D5C8DA8
:1008100060E070E080E090E00E943A2D29013A010A
:100820004B01898799838D899E89AF89B88D5C0139
:100830006D01E12CF12C00E010E02BA13CA14DA1B9
:100840005EA16FA178A589A59AA50E94F02D5901F6
:100850006A017B018C019201A301B4018985998110
:100860000E94932EAA960FB6F894DEBF0FBECDBF9E
:10087000DF91CF911F910F91FF90EF90DF90CF907C
:10088000BF90AF909F908F907F906F905F904F90B0
:100890003F902F900895DF92EF92FF920F931F9356
:1008A000CF93DF93FC01E080F18002811381D4813A
:1008B000C581B681D7809701A8016D2F7C2F8B2F22
:1008C0009D2D285938424C4151096109710981090E
:1008D0009109273938424C4151056105710581055F
:1008E000910509F0D0F49701A8016D2F7C2F8B2F73
:1008F0009D2D07E00E945D2E208331834283538328
:10090000648375838683978387E0DF91CF911F91FE
:100910000F91FF90EF90DF9008959701A8016D2F40
:100920007C2F8B2F9D2D2053314548435109610960
:100930007109810991092F323145484351056105FB
:1009400071058105910509F098F49701A8016D2FB3
:100950007C2F8B2F9D2D06E00E945D2E20833183FE
:1009600042835383648375838683978386E0CDCFE8
:100970009701A8016D2F7C2F8B2F9D2D2056324A79
:100980004047510961097109810991092F35324A9E
:1009900040475105610571058105910509F098F4FD
:1009A0009701A8016D2F7C2F8B2F9D2D05E00E94B4
:1009B0005D2E2083318342835383648375838683D2
:1009C000978385E0A2CF9701A8016D2F7C2F8B2FF5
:1009D0009D2D205C3444414E510961097109810902
:1009E00091092F3B3444414E510561057105810544
:1009F000910509F098F49701A8016D2F7C2F8B2F9A
:100A00009D2D04E00E945D2E208331834283538319
:100A1000648375838683978384E077CF9701A801E9
:100A20006D2F7C2F8B2F9D2D20583948424C5140E3
:100A300061097109810991092F373948424C5140A8
:100A4000610571058105910509F098F49701A801E8
:100A50006D2F7C2F8B2F9D2D03E00E945D2E208318
:100A6000318342835383648375838683978383E0D2
:100A70004CCF9701A8016D2F7C2F8B2F9D2D3351CB
:100A80004548534061097109810991092F3F32415D
:100A900045485340610571058105910509F098F4B9
:100AA0009701A8016D2F7C2F8B2F9D2D02E00E94B6
:100AB0005D2E2083318342835383648375838683D1
:100AC000978382E022CF9701A8016D2F7C2F8B2F77
:100AD0009D2D36524A40574061097109810991099B
:100AE0002F3F35424A405740610571058105910508
:100AF00009F098F49701A8016D2F7C2F8B2F9D2D65
:100B000001E00E945D2E20833183428353836483FE
:100B100075838683978381E0F8CE80E0F6CE2F92AE
:100B20003F924F925F926F927F928F929F92AF927D
:100B3000BF92CF92DF92EF92FF920F931F93CF93CA
:100B4000DF93CDB7DEB76C970FB6F894DEBF0FBE5C
:100B5000CDBF322E3D87242E5E872B013C01A9821A
:100B6000BF86C88AD98AEA8AFB8A0C8B1D8B988E2D
:100B70008F8A211501EC30070AE140070DE3500789
:100B800005E0600771058105910509F0A0F52F3793
:100B900010EF31071AEF410712E0510761057105A7
:100BA0008105910509F008F4B4C12F3F354D41414D
:100BB0005E47634071058105910509F008F48FC017
:100BC00029813F85488959896A897B898C899D89D2
:100BD000A0E0992493940E94A82E09F08EC011E001
:100BE0001E8B94E0892E912CA12CB12C89869A869B
:100BF000AB86BC862FC0312CB1ECBD872AE1222EFA
:100C0000EDE3EE8735E0432E512C612C712CD8CFCB
:100C1000A32CBD84C22CDE847201830120E034E069
:100C20004BE654EF64E170E080E090E00E94F02D2C
:100C3000122FB32FF42FE52FA7E00E94A82E21F446
:100C400016E0B0E0F0E0E0E0CF011987BA879B87BB
:100C5000EC871E8A89849A84AB84BC84A5019401A4
:100C600060E070E0CB01A32CBD84C22CDE84720155
:100C7000830129833A834B835C836D837E838F83D7
:100C8000988760E070E080E090E00E943A2D298330
:100C90003F87488B598B6A8B7B8B8C8B9D8B0E8906
:100CA000C12CD12C7601C39440E050E0BA01013050
:100CB00009F0A9C0AF89B88D1D921D921D921C929A
:100CC0001397FD01148215821682178281E090E04D
:100CD000A0E0B0E080879187A287B387DEC029813A
:100CE0003F85488959896A897B898C899D89A0E0DB
:100CF0000E94A82E09F48CCF912CA32CBD84C22C69
:100D0000DE847201830129813F85488959896A8976
:100D10007B898C899D890E94F02D29873A874B8792
:100D20005C8729853A854B855C8506E0A02EB12C31
:100D3000263031054105510568F089859A85AB85D6
:100D4000BC8589309740A105B105D0F0B8E0AB2E45
:100D500017E0B12EC12CD12CE12CF12C00E010E0D9
:100D600029813F85488959896A897B898C899D8930
:100D70000E94F02D322E3D87242E5E872B013C01F0
:100D8000A32CBD84C22CDE847201830129813F859E
:100D9000488959896A897B898C899D890E94EE2DB1
:100DA000E0E4AE2EF2E4BF2EAFE0CA2ED12CE12C4F
:100DB000F12C00E010E00E943A2DA32CBD84C22C3F
:100DC000DE84720183010E94F02DA32FF42FE52F02
:100DD000422F5A2F6F2F7E2FA0E4CA2EA2E4DA2EC4
:100DE000AFE0EA2EF12C411551056105710521F4A2
:100DF000C12CD12C7601C394AA24A3949A1409F48B
:100E00006DC001E00E8BCB01BA0117E0660F771FB2
:100E1000881F991F1A95D1F7A70196010E940A2DE4
:100E2000298F3A8F4B8F5C8F89849A84AB84BC84E2
:100E300007E0880C991CAA1CBB1C0A95D1F79501E8
:100E4000840112502109310948015901298D3A8D37
:100E50004B8D5C8D280D391D4A1D5B1DAF89B88DEA
:100E60002D933D934D935C931397FD01648375839C
:100E7000868397831896CD92DD92ED92FC921B9714
:100E80008E88882051F039829D849F86288AAE847E
:100E9000A98A4A8A5B8A6C8A7D8A29813F8548892A
:100EA00059896A897B898C899D896C960FB6F894DB
:100EB000DEBF0FBECDBFDF91CF911F910F91FF908D
:100EC000EF90DF90CF90BF90AF909F908F907F90EA
:100ED0006F905F904F903F902F900895AF89B88D9D
:100EE0001D921D921D921C921397FD011482158272
:100EF0001682178281E090E0A0E0B0E080879187C1
:100F0000A287B3873982FD85FF87288A8E84898AE4
:100F1000C0CF29813F85488959896A897B898C8915
:100F20009D89A0E0E0E83E2EF0EFFD87FAEF2F2E3E
:100F300002E00E87412C512C612C712C0E94A82EAE
:100F400009F0DACE18E0B7E07DCEDF92EF92FF92A3
:100F50000F931F93CF93DF93FC01E080F180028118
:100F60001381D481C581B681D7809701A8016D2FE7
:100F70007C2F8B2F9D2D20583A4146405109610905
:100F80007109810991092F373A41464051056105A0
:100F900071058105910509F0D0F49701A8016D2F25
:100FA0007C2F8B2F9D2D07E00E945D2E20833183A7
:100FB00042835383648375838683978387E0DF91BD
:100FC000CF911F910F91FF90EF90DF9008959701BF
:100FD000A8016D2F7C2F8B2F9D2D35534C4051092F
:100FE00061097109810991092F3F34434C40510532
:100FF000610571058105910509F098F49701A80133
:101000006D2F7C2F8B2F9D2D06E00E945D2E20835F
:10101000318342835383648375838683978386E019
:10102000CECF9701A8016D2F7C2F8B2F9D2D3A5687
:101030004841510961097109810991092F3F3946D8
:1010400048415105610571058105910509F098F444
:101050009701A8016D2F7C2F8B2F9D2D05E00E94FD
:101060005D2E20833183428353836483758386831B
:10107000978385E0A4CF9701A8016D2F7C2F8B2F3C
:101080009D2D345D40435109610971098109910920
:101090002F3F334D40435105610571058105910591
:1010A00009F098F49701A8016D2F7C2F8B2F9D2DAF
:1010B00004E00E945D2E2083318342835383648346
:1010C00075838683978384E07ACF9701A8016D2F7B
:1010D0007C2F8B2F9D2D385A41465109610971098A
:1010E000810991092F3F374A414651056105710534
:1010F0008105910509F098F49701A8016D2F7C2FC7
:101100008B2F9D2D03E00E945D2E2083318342832F
:101110005383648375838683978383E050CF9701DD
:10112000A8016D2F7C2F8B2F9D2D3055434C5109DD
:1011300061097109810991092F3F3F44434C5105D1
:10114000610571058105910509F098F49701A801E1
:101150006D2F7C2F8B2F9D2D02E00E945D2E208312
:10116000318342835383648375838683978382E0CC
:1011700026CF9701A8016D2F7C2F8B2F9D2D305AE4
:101180004648514061097109810991092F3F3F4942
:1011900046485140610571058105910509F098F4B3
:1011A0009701A8016D2F7C2F8B2F9D2D01E00E94B0
:1011B0005D2E2083318342835383648375838683CA
:1011C000978381E0FCCE80E0FACE0895089590E008
:1011D000FC01EC5BFD4F2491805D9D4FFC018491EF
:1011E000882399F090E0880F991FFC01E45EFD4F81
:1011F000A591B491FC01EA5DFD4F859194918FB763
:10120000F894EC91E22BEC938FBF089590E0FC01F1
:10121000E85FFD4F2491FC01EC5BFD4F3491FC0134
:10122000E05DFD4FE491EE23C9F0222339F0233035
:1012300001F1A8F4213019F1223029F1F0E0EE0F8C
:10124000FF1FEA5DFD4FA591B4918FB7F894EC9123
:10125000611126C030953E233C938FBF08952730FF
:10126000A9F02830C9F0243049F7809180008F7DA3
:1012700003C0809180008F7780938000DFCF84B59A
:101280008F7784BDDBCF84B58F7DFBCF8091B0009D
:101290008F778093B000D2CF8091B0008F7DF9CF4F
:1012A0003E2BDACF3FB7F89480917204909173048B
:1012B000A0917404B091750426B5A89B05C02F3F7A
:1012C00019F00196A11DB11D3FBFBA2FA92F982F6C
:1012D0008827BC01CD01620F711D811D911D43E066
:1012E000660F771F881F991F4A95D1F708958F922F
:1012F0009F92AF92BF92CF92DF92EF92FF924B01FB
:101300005C010E9452096B017C010E9452096C1918
:101310007D098E099F09683E734081059105A8F3F8
:1013200021E0821A9108A108B10888EEC80E83E076
:10133000D81EE11CF11C81149104A104B10429F709
:10134000FF90EF90DF90CF90BF90AF909F908F90E5
:1013500008952FB7F89460916E0470916F04809196
:101360007004909171042FBF0895AF92BF92CF92F5
:10137000DF92EF92FF920F931F93CF93DF936C0155
:101380007B018B01040F151FEB015E01AE18BF0836
:10139000C017D10759F06991D601ED91FC910190E8
:1013A000F081E02DC6010995892B79F7C501DF9100
:1013B000CF911F910F91FF90EF90DF90CF90BF9052
:1013C000AF900895FC01538D448D252F30E0842F7C
:1013D00090E0821B930B541710F0CF96089501975D
:1013E0000895FC01918D828D981761F0A28DAE0F4A
:1013F000BF2FB11D5D968C91928D9F5F9F73928FD1
:1014000090E008958FEF9FEF0895FC01918D828DFC
:10141000981731F0828DE80FF11D858D90E00895C9
:101420008FEF9FEF0895FC01918D228D892F90E021
:10143000805C9F4F821B91098F739927089582EFDB
:1014400095E00E94130A21E0892B09F420E0822F05
:10145000089580E090E0892B29F00E941F0A8111F5
:101460000C9400000895FC01A48DA80FB92FB11DA4
:10147000A35ABF4F2C91848D90E001968F739927CA
:10148000848FA689B7892C93A089B1898C918370A8
:1014900080648C93938D848D981306C00288F389A1
:1014A000E02D80818F7D80830895EF92FF920F93CE
:1014B0001F93CF93DF93EC0181E0888F9B8D8C8D00
:1014C00098131AC0E889F989808185FF15C09FB7F4
:1014D000F894EE89FF896083E889F98980818370B7
:1014E000806480839FBF81E090E0DF91CF911F9166
:1014F0000F91FF90EF900895F62E0B8D10E00F5F87
:101500001F4F0F731127E02E8C8D8E110CC00FB65C
:1015100007FCFACFE889F989808185FFF5CFCE01F4
:101520000E94330AF1CFEB8DEC0FFD2FF11DE35A32
:10153000FF4FF0829FB7F8940B8FEA89FB89808177
:101540008062CFCFCF93DF93EC01888D8823B9F0F1
:10155000AA89BB89E889F9898C9185FD03C08081BE
:1015600086FD0DC00FB607FCF7CF8C9185FFF2CF3B
:10157000808185FFEDCFCE010E94330AE9CFDF9154
:10158000CF910895DC011D96ED91FC911E979081FD
:101590001C968C9180958923808308958FEF9FEF0F
:1015A0000895089590E080E0089520E001972FEFDE
:1015B0008F3F9207D9F70895A895E0E6F0E0808183
:1015C0008064808308956093420470934304809301
:1015D000440490934504645D7E4F8F4F9F4F60930A
:1015E0003E0470933F04809340049093410482E052
:1015F00090E090934804809347040E94A909609367
:101600003A0470933B0480933C0490933D04089506
:10161000CF92DF92EF92FF920F931F930E94A9093E
:101620008B019C01C0903A04D0903B04E0903C04B4
:10163000F0903D0460914204709143048091440411
:10164000909145040C191D092E093F09083E1340CD
:1016500021053105E0F0DC01CB010196A11DB11D92
:101660008093420490934304A0934404B0934504B0
:10167000B701A60148515C4F6F4F7F4F40933A042A
:1016800050933B0460933C0470933D04C7CF1F917B
:101690000F91FF90EF90DF90CF9008954F925F925F
:1016A0006F927F928F929F92AF92BF92CF92DF9272
:1016B000EF92FF920F931F93CF93DF934B015C0147
:1016C0008091360490913704A0913804B091390488
:1016D00088159905AA05BB0509F4C6C08CE3C82E78
:1016E000D12CE12CF12CC501A70196010E940A2DF5
:1016F0006093EB05CA01B901A70196010E940A2D6A
:101700006093EC05C501B40120E13EE040E050E00B
:101710000E940A2DCA01B90128E130E040E050E002
:101720000E940A2D6093ED05C501B40120E831E562
:1017300041E050E00E940A2D69017A01CA01B90115
:101740006C5F7F4F8F4F9F4F27E030E040E050E0CD
:101750000E940A2D6F5F6093EE05412C512C3201DF
:1017600040E004E610E0C0E9D1E0242F30E02E5440
:10177000384FF901E370FF273097F9F4C901B80138
:101780000E94F62C892B31F4C901BE010E94F62C6F
:10179000892B99F48EE691E0A0E0B0E0480E591E46
:1017A0006A1E7B1ED301C201AA27BB27C816D90611
:1017B000EA06FB0638F04F5FD8CF8DE691E0A0E057
:1017C000B0E0ECCF4093F105C90164E670E00E94FF
:1017D000F62CEC01C90160E971E00E94F62C30970B
:1017E00021F42097D9F40097C9F04DE651E060E06C
:1017F00070E0441A550A660A770AC418D508E60844
:10180000F708ABECB1E020E0213069F43097E9F55E
:10181000209711F40097C9F54DE106C04EE651E05E
:1018200060E070E0E6CF4C9150E070E060E031E0C5
:10183000320FC416D506E606F70640F0C41AD50ADC
:10184000E60AF70A1196232F3C30F1F62F5F20931A
:10185000F005C394C092EF0580923604909237044D
:10186000A0923804B0923904DF91CF911F910F916B
:10187000FF90EF90DF90CF90BF90AF909F908F90B0
:101880007F906F905F904F9008954CE1CDCF0E9474
:10189000080B0E944E0B8091EB0590E008950E948A
:1018A000080B0E944E0B8091EC0590E00895CF93B9
:1018B000DF93EC018A859B85AC85BD858E839F83F4
:1018C000A887B9870E94A9096A837B838C839D833B
:1018D00081E089838883DF91CF910895CF93DF934F
:1018E000EC018E819F81A885B9858A839B83AC8317
:1018F000BD830E94A9096A877B878C879D8781E0C9
:1019000089838883DF91CF910895E0917B04809152
:101910007A04E81730F4F0E0E458FB4F808190E05F
:1019200008958FEF9FEF089590917B0480917A0442
:101930002FEF3FEF981748F4E92FF0E0E458FB4F02
:10194000208130E09F5F90937B04C901089590E06F
:1019500080E0089520911304260F3327331F21328E
:101960003105ECF42091C204FC0190E080E02430C9
:1019700069F082E00895A09113042191AC014D50CB
:101980005C4FA40FB52FB11D2C930196861798F3C9
:1019900080911304680F6093130480E0089581E040
:1019A0000895CF92DF92EF92FF920F931F93CF9300
:1019B000DF937C01CB018A012091C804222389F0A6
:1019C000EB016B01C40ED51ECC15DD0569F06991E4
:1019D000D701ED91FC910190F081E02DC7010995AF
:1019E000F3CF642F0E94AA0CC801DF91CF911F9101
:1019F0000F91FF90EF90DF90CF900895CF93DF93FA
:101A00001F92CDB7DEB769832091C8042223F9F075
:101A10002091EB04203258F021E030E0FC013383C8
:101A2000228390E080E00F90DF91CF910895809124
:101A3000C904E82FF0E0E653FB4F998190838F5F54
:101A40008093C9048093EB0481E090E0ECCF61E0E7
:101A5000CE0101960E94AA0CF7CF1092C20481E039
:101A60008093C10410929C0461E082E10E94060907
:101A700061E083E10E940609E9EBF0E080818E7F5E
:101A8000808380818D7F808380E28093B80085E4AD
:101A90008093BC000895CF93DF9391E09093F2037D
:101AA0008823B9F0C091B800D091BA008091BC00F1
:101AB0008A7B8093BC0060E082E10E94060960E0BE
:101AC00083E10E9406090E942D0DD093BA00C093B5
:101AD000B800DF91CF9108958F929F92AF92BF92FD
:101AE000CF92DF92EF92FF920F931F93CF93DF93EA
:101AF000D091EB04D13208F0D7C0182FC091EA047E
:101B00000E9452096B017C018091C20481116BC05B
:101B100082E08093C2041093C1048FEF8093C004CD
:101B20001092BF04D093BE04AAECB4E0EEE9F4E056
:101B300080E0D81391C010929D0480919D04CC0F39
:101B4000C82BC0939D0480919C04813009F088C00B
:101B500010929C040E9452096B017C0180919D04AB
:101B60008093BB008091C4049091C504A091C604E9
:101B7000B091C704892B8A2B8B2BA1F00E945209AC
:101B80000091C4041091C5042091C6043091C7048B
:101B90006C197D098E099F09061717072807390751
:101BA00008F442C08091BC0083FDD8CF85EC8093BF
:101BB000BC000E9452096B017C018091C2048230FA
:101BC00009F450C08091C0048F3F09F46FC0809128
:101BD000C004803209F46CC08091C004803309F4E1
:101BE00069C084E026C08091C4049091C504A0918E
:101BF000C604B091C704892B8A2B8B2B09F484CFA0
:101C00000E9452098090C4049090C504A090C6041C
:101C1000B090C7046C197D098E099F098616970636
:101C2000A806B90608F070CF8091C3040E944B0D3E
:101C300085E01092C9041092EB041092C804DF9161
:101C4000CF911F910F91FF90EF90DF90CF90BF90B9
:101C5000AF909F908F9008959D9191938F5F69CFE2
:101C600085EEA5CF8091C4049091C504A091C604CF
:101C7000B091C704892B8A2B8B2B09F49ECF0E942D
:101C800052090091C4041091C5042091C6043091FA
:101C9000C7046C197D098E099F09061717072807C5
:101CA000390708F08ACFC0CF81E0C3CF80E0C1CF31
:101CB00082E0BFCF83E0BDCFCF93C62F909128079E
:101CC00021E02093C8049093EA041092C904109272
:101CD000EB04682F8FE896E00E94FE0C6C2F8FE8D3
:101CE00096E00E94FE0C81E0CF910C946C0DEF9277
:101CF000FF920F931F93CF93DF93062F7A0190915A
:101D0000280721E02093C8049093EA041092C904A4
:101D10001092EB04682F8FE896E00E94FE0CE7011A
:101D200010E0CE018E199F098017910734F4699154
:101D30008FE896E00E94FE0CF4CF81E0DF91CF9116
:101D40001F910F91FF90EF900C946C0D8F929F92CA
:101D5000AF92BF92CF92DF92EF92FF921F93CF93F9
:101D6000DF93E1E3F7E011AA82A893A8A4A8B5A89D
:101D7000C501B40120E432E44FE050E00E940A2D96
:101D8000122F2093F103C501B40120E137E240E0B6
:101D900050E00E940A2D84E6C82ED12CE12CF12CB3
:101DA000CA01B901A70196010E940A2D6093F003B0
:101DB000CBEED5E08EE18E8381E08D838C831A8318
:101DC0006983C501B401A70196010E940A2DCA01C9
:101DD000B901A70196010E940A2D68830E9457014C
:101DE000DF91CF911F91FF90EF90DF90CF90BF9048
:101DF000AF909F908F900C94E30ACF92DF92EF9276
:101E0000FF920F931F93CF939091280721E0209387
:101E1000C8049093EA041092C9041092EB04682F4E
:101E20008FE896E00E94FE0C81E00E946C0DC0914C
:101E300028070E9452096B017C018091C204811124
:101E400065C081E08093C2041092C1049FEF90931B
:101E5000C0041092BF041092BE0480939D04809130
:101E60009D04CC0FC82BC0939D0480919C048130AD
:101E700009F080C010929C040E9452096B017C0101
:101E800080919D048093BB008091C4049091C5040F
:101E9000A091C604B091C704892B8A2B8B2BA1F08B
:101EA0000E9452090091C4041091C5042091C604F7
:101EB0003091C7046C197D098E099F090617170711
:101EC0002807390708F443C08091BC0083FDD8CFB0
:101ED00085EC8093BC000E9452096B017C018091CB
:101EE000C204813009F448C08091BF04C1E081116F
:101EF00002C0C091BF04EEE9F4E0ACE7B4E080E0DA
:101F00008C1751F191919D938F5FFACF8091C4040A
:101F10009091C504A091C604B091C704892B8A2B67
:101F20008B2B09F48ACF0E9452090091C4041091AE
:101F3000C5042091C6043091C7046C197D098E092F
:101F40009F09061717072807390708F076CF8091F1
:101F5000C3040E944B0DC0E010927B04C0937A042E
:101F600080E090917B04C91749F18FE896E00E94C8
:101F7000940CF7CF85EEADCF8091C4049091C50449
:101F8000A091C604B091C704892B8A2B8B2B09F42E
:101F9000A6CF0E9452090091C4041091C50420915B
:101FA000C6043091C7046C197D098E099F09061774
:101FB00017072807390708F092CFC9CFCF911F9193
:101FC0000F91FF90EF90DF90CF900895CF93C0E1F5
:101FD000C80F8C2F0E94FD0E682F60688C2FCF9148
:101FE0000C945C0ECF93DF93D82FC62F83E00E9412
:101FF000FD0E61E070E001C0660FDA95EAF7C130CE
:1020000039F46095682383E0DF91CF910C945C0EE6
:10201000682BF9CF1F93CF93DF93C62F142F8D53C7
:102020009E4FFC01D0818D2F0E94FD0E83781111EF
:102030008C60F0E1CF9FB0011124682B8D2FDF91D0
:10204000CF911F910C945C0ECF93DF93D62FC0E1FC
:10205000C80F8C2F0E94FD0E682FD13031F46064C0
:102060008C2FDF91CF910C945C0E6F7BF9CFFF9298
:102070000F931F93CF93DF93EC018B01F82E80E138
:10208000F80E8F2D0E94FD0E682F0115110581F4A9
:102090006F7D8F2D0E945C0ECC0FDD1FC655D94F72
:1020A0001A870987DF91CF911F910F91FF900895B3
:1020B0006062EFCFDF92EF92FF920F931F93CF9367
:1020C000DF93EC018F859889892B71F481E090E092
:1020D0009B838A8390E080E0DF91CF911F910F91E5
:1020E000FF90EF90DF900895162FDFB6F89489895E
:1020F0009A89892B69F1ED85FE8580819C85892BE4
:1021000080838F85988904960E94D50A89899A8947
:1021100028E0E22EF12C01E0892B29F1812F802388
:10212000D9F0CE010E94C20A8F8598890E94D50AF3
:10213000000F81E0E81AF10889F7CE010E94C20A77
:10214000DFBE8F8598890E94D50A81E090E0C4CFD8
:10215000CE010E94C20AD5CFED85FE8580819C8587
:10216000892B8083E1CF812F8023B1F0ED85FE851F
:1021700080819C85892B80838F8598890E94D50AD0
:10218000000F81E0E81AF10871F7ED85FE85808186
:102190009C85892B8083D4CFCE010E94C20AECCFCC
:1021A0000F931F93CF93DF938C01D0E0C0E0F80131
:1021B000EC0FFD1F6491662341F08EED97E00E94C5
:1021C0005A10892B11F02196F2CFCE01DF91CF91D9
:1021D0001F910F9108952F923F924F925F926F92AD
:1021E0007F928F929F92AF92BF92CF92DF92EF92A7
:1021F000FF920F931F93CF93DF93CDB7DEB72D9749
:102200000FB6F894DEBF0FBECDBF3C01C982DA82A3
:10221000EB82FC820D831E832F83388749875A8780
:102220006B877C87BAA03C2C2D2C5E2C0D87412E11
:10223000922EC984DA84EB84FC8484E190E00E94CD
:10224000E42E8C01FC01D082C182862D880F880F7C
:10225000880F845D0E94FD0EF52DF3705F2E8C7F3C
:10226000582AF8015282238234828CE0F694E79453
:10227000D794C7948A95D1F7FC2DF07FCF2E892D66
:102280008F70C82AF801C58246828D85878393E0C6
:102290006916710409F46CC0A8F5F1E06F167104B9
:1022A00009F448C082E06816710409F452C0A8011C
:1022B00068E08AE20E94770E6A2D90E080E00E943A
:1022C00024104B2D682D90E080E00E940A10C80178
:1022D0002D960FB6F894DEBF0FBECDBFDF91CF9124
:1022E0001F910F91FF90EF90DF90CF90BF90AF9034
:1022F0009F908F907F906F905F904F903F902F9026
:102300000C94802F94E06916710409F440C0E5E054
:102310006E16710461F6A80168E082E50E94770EEE
:102320006A2D85E090E00E9424104B2D682D85E0F9
:1023300090E0CBCFA80168E082E30E94770E6A2D7F
:1023400081E090E00E9424104B2D682D81E090E008
:10235000BCCFA80168E08AE30E94770E6A2D82E074
:1023600090E00E9424104B2D682D82E090E0ADCFCC
:10237000A80168E082E40E94770E6A2D83E090E075
:102380000E9424104B2D682D83E090E09ECFA80181
:1023900068E08AE40E94770E6A2D84E090E00E9453
:1023A00024104B2D682D84E090E08FCF2F923F9228
:1023B0004F925F926F927F928F929F92AF92BF9255
:1023C000CF92DF92EF92FF920F931F93CF93DF9301
:1023D000CDB7DEB72E970FB6F894DEBF0FBECDBFD8
:1023E00019013A014B018D879E872801012B09F0C5
:1023F00073C0E0911307F0911407EE0FFF1FEE0F6B
:10240000FF1FE15EF84FA080B180C280D380CE0173
:1024100001967C0189019301AB016D857E8590E079
:1024200080E00E945A0284E190E00E94E42E8C0138
:1024300089859A85AB85BC85F80190838183398134
:102440004A812B8123702283438334832CE0B69509
:10245000A795979587952A95D1F7807F2D813E8105
:102460009F819F70892B8583368327834114510474
:1024700009F04BC0A80168E08AE10E94770E209223
:102480000307309204076092050770920607809256
:10249000070790920807FD85F09309078E858093C2
:1024A0000A07C8012E960FB6F894DEBF0FBECDBF47
:1024B000DF91CF911F910F91FF90EF90DF90CF9020
:1024C000BF90AF909F908F907F906F905F904F9054
:1024D0003F902F900C94802FE0911507F0911607F4
:1024E000EE0FFF1FEE0FFF1FE15EF84FA080B180DF
:1024F000C280D380FE0131967F0181019A01AB0138
:102500006D857E8581E090E08CCF4A94452849F620
:10251000A80168E082E20E94770E20920B073092B9
:102520000C0760920D0770920E0780920F07909231
:102530001007ED85E0931107FE85F0931207B1CFE8
:10254000EF92FF920F931F93CF93DF9310927B0430
:1025500010927A041092C9041092EB040E942D0D7F
:1025600085EE98E0909379048093780486EE98E065
:1025700090937704809376048091280791E090935C
:10258000C8048093EA0481E00E946C0D81112DC182
:1025900080E00E94FD0E90E0880F892F881F990B24
:1025A0000197B1F362E187EB0E945C0E80EC9CEF37
:1025B000ABE9B1E08093170790931807A093190730
:1025C000B0931A0710921F0710922007109221074C
:1025D00010922207209103073091040740910507CC
:1025E00050910607609107077091080710E000E01E
:1025F0008091090790910A070E94D61120910B073C
:1026000030910C0740910D0750910E0760910F0714
:102610007091100701E010E080911107909112076E
:102620000E94D61160E880E10E945C0E60E881E1C2
:102630000E945C0E60E882E10E945C0E60E883E12B
:102640000E945C0E60E884E10E945C0E60E885E117
:102650000E945C0E60E886E10E945C0E60E887E103
:102660000E945C0E6CE080E10E945C0E6CE081E1F7
:102670000E945C0E6CE082E10E945C0E6CE083E1E3
:102680000E945C0E6CE084E10E945C0E6CE085E1CF
:102690000E945C0E6CE086E10E945C0E6CE087E1BB
:1026A0000E945C0E10E000E020E030E24FE550EACE
:1026B00062E170E080E090E00E94D61101E010E05D
:1026C00020E030E24FE550EA62E170E080E090E027
:1026D0000E94D6111092B4061092B3061092B6065C
:1026E0001092B5061092B8061092B7061092BA066C
:1026F0001092B9061092BC061092BB061092BE064C
:102700001092BD0681E090E09093C0068093BF06D2
:102710009093C2068093C10670E060E090E080E094
:102720000E94371070E060E081E090E00E94371076
:1027300070E060E082E090E00E94371070E060E0BE
:1027400083E090E00E94371070E060E084E090E069
:102750000E94371070E060E085E090E00E94371042
:1027600061E070E086E090E00E94371061E070E088
:1027700087E090E00E94371060E082EA0E945C0EE1
:1027800060E083EA0E945C0E60E084EA0E945C0ED6
:1027900060E281EB0E945C0E60E881EB0E945C0EBF
:1027A000C3ECD6E089E2E82E87E0F82E10E000E0E6
:1027B000188219821A821B821C821D821E821F822D
:1027C000289660E0C8010E94F20FF70111927F0184
:1027D0000F5F1F4F0830110559F781E0DF91CF914E
:1027E0001F910F91FF90EF90089580E0F7CF2F9207
:1027F0003F924F925F926F927F928F929F92AF9291
:10280000BF92CF92DF92EF92FF920F931F93CF93DD
:10281000DF93CDB7DEB7CB55D1400FB6F894DEBF0E
:102820000FBECDBF6DE072E0CE01805B9E4F0E9477
:102830003E3064E172E0CE01895A9E4F0E943E30E4
:10284000CF5ADE4F8881C155D14080538A30B8F4C9
:10285000CE5ADE4F8881C255D14080538A3078F0FD
:1028600045E050E0BE01605B7E4FCB0101960E94C7
:102870001C3080E2C05BDE4F8883C055D140CE5A09
:10288000DE4F8881C255D14080538A3030F080E3DA
:10289000CE5ADE4F8883C255D1408E01005B1E4F59
:1028A000780136E0E30EF11C50E2D52ED8018C9170
:1028B000082E000C990B0E941430F8018083082E1A
:1028C000000C990B9C01205331092A30310530F05E
:1028D0000E940930892B11F4D801DC920F5F1F4F41
:1028E000E016F10619F786E0FE01E05BFE4FADE968
:1028F000B6E001900D928A95E1F78E01095A1E4FBC
:102900007801B4E0EB0EF11CF80181918F01082EE3
:10291000000C990B0E941430F80131978083282F06
:10292000082E000C330B205331092A30310568F092
:102930008154823150F085E0E9E1F2E0DE01A95AEC
:10294000BE4F01900D928A95E1F7E016F106E1F68F
:1029500084E0FE01E95AFE4FA4EAB6E001900D9230
:102960008A95E1F783E1EEE0F1E0DE011196019056
:102970000D928A95E1F71091A906FE013196CE01DC
:102980004496DF012D912A3009F41AE08A179B073B
:10299000C9F721E030E02C0F3D1F2E5E3F4F8181B3
:1029A0008B3020F080818B3008F4182F31962E1751
:1029B0003F07A9F71093A90680919D060E943C024B
:1029C000282F30E0A4E2B0E00E94C22B6B017C0112
:1029D00080919E060E943C02A7019601280F311D9E
:1029E000411D511DAAE0B0E00E94802B6B017C01CB
:1029F00080919F060E943C02A7019601280F311D7D
:102A0000411D511DABE1B0E00E94802B6B017C01A8
:102A10008091A0060E943C02482F4A50550B9A0113
:102A2000032E000C440B550B2C0D3D1D4E1D5F1D40
:102A3000ABE1B0E00E94802B6B017C018091A1068C
:102A40000E943C02A82FAA50BB0B9D01032E000C34
:102A5000440B550B2C0D3D1D4E1D5F1DABE1B0E031
:102A60000E94802B6B017C018091A2060E943C0297
:102A70008A50990B092E000CAA0BBB0B8C0D9D1DC7
:102A8000AE1DBF1D4091A406042E000C550B4154F1
:102A9000510966EF64039001659F300D1124409148
:102AA000A606241B310947FD33952D513F4F64EB9A
:102AB000629FA001639F500D11242091A506022E54
:102AC000000C330B21543109EAE0E29FB001E39F8F
:102AD000700D1124460F571F2091A706022E000CDF
:102AE000330B20533109420F531F052E000C660B88
:102AF000770B07E0440F551F661F771F0A95D1F724
:102B0000405C5F4F6F4F7F4F410F511D611D711D25
:102B10008C019D01E4E03695279517950795EA9578
:102B2000D1F7C95BDE4F0883C754D1408C019D01AA
:102B3000FCE03695279517950795FA95D1F7CA5B6E
:102B4000DE4F0883C654D1408C019D01A4E1369527
:102B5000279517950795AA95D1F7CB5BDE4F08838C
:102B6000C554D140242F2295220F220F207CC55B13
:102B7000DE4F2883CB54D1408A019B01B2E03695C9
:102B8000279517950795BA95D1F7C65BDE4F088351
:102B9000CA54D1408A019B019AE036952795179532
:102BA00007959A95D1F7C75BDE4F0883C954D1408A
:102BB00022E176956795579547952A95D1F74F70FD
:102BC0008295807F482BC85BDE4F4883C854D14034
:102BD000C45BDE4F1882CC54D140C35BDE4F1882F9
:102BE000CD54D140C25BDE4F1882CE54D140C15B80
:102BF000DE4F1882CF54D140FE01EB5BFE4F7F01C8
:102C0000BBE0EB0EF11C20E040E050E0BA01CE0149
:102C10008D559F4F019110E0312C212C4A015B0111
:102C2000880C991CAA1CBB1CB801022C02C0660FA0
:102C3000771F0A94E2F7660F672F661F770B6170A4
:102C40002401462AB501A2014A0131E5832233E578
:102C5000932230EDA32232EFB322A0E2DA2E712CC0
:102C6000A82DA1707A26B694A79497948794DA94A5
:102C7000D110F6CF6C01C20ED11CD6017C92CC24AF
:102C8000C394C20E4A015B01B7E48B22BCE39B22D2
:102C9000B1E6AB22B4EEBB22B0E2DB2E30E0A82DD1
:102CA000A1703A27B694A79497948794DA94D11098
:102CB000F6CFC80ED92ED11CD6013C932E5F223AF6
:102CC00040F4BFEF2B1A3B0A38E02316310409F019
:102CD000A5CFEE16FF0609F09DCF30E020E001E021
:102CE00010E0622F47E050E0E0E0A62FB0E060FF88
:102CF00007C0B801042E01C0660F0A94EAF7E62B5C
:102D0000BD01759567954150510978F7E23A68F42D
:102D1000A1E0B0E0AC0FBD1FAE0FB11DFD01DC01A5
:102D2000A30FB11D4C9140833F5F323A18F42F5FDF
:102D30002F3FB9F622EAFE013196DC0101900D9297
:102D40002A95E1F722EAE1E2F1E0DE011196019035
:102D50000D922A95E1F7FE013196AC016CEE74E01C
:102D60003191DA012D91AD01220F230FDB012D935B
:102D7000BD018E179F07A1F7C55ADE4F0FB6F89415
:102D8000DEBF0FBECDBFDF91CF911F910F91FF909E
:102D9000EF90DF90CF90BF90AF909F908F907F90FB
:102DA0006F905F904F903F902F9008952F923F9299
:102DB0004F925F926F927F928F929F92AF92BF924B
:102DC000CF92DF92EF92FF920F931F93CF93DF93F7
:102DD000D82FC92F8B010E940F2824E630E040E055
:102DE00050E00E940A2D49019B01AC0160E876E9A0
:102DF00088E990E00E94E62C6B017C01F801918249
:102E00008082ED2FFC2F2191822F022E000C990B36
:102E1000C0970A97C0F32E3239F51F0180E8882E3B
:102E200086E9982E88E9A82EB12C9AE0492E512CDB
:102E3000612C712CF101C1911F010C2E000CDD0BD6
:102E4000E097CA30D10580F4C501B401A301920115
:102E50000E940A2D49015A01DE010E94322DC60E40
:102E6000D71EE81EF91EE6CFA5E0B0E0A701960147
:102E70000E94802B6F5F7F4F8F4F9F4F23E030E08A
:102E800040E050E00E940A2DF801228333834483FE
:102E900055831682DF91CF911F910F91FF90EF9094
:102EA000DF90CF90BF90AF909F908F907F906F906A
:102EB0005F904F903F902F9008951F93CF93DF9393
:102EC000EC0118811D3209F42196CE010E940F28D1
:102ED0009B01AC01A4E6B0E00E94802BAB01BC01D9
:102EE000FE012991822F022E000C990BC0970A97A0
:102EF000B8F32E3231F58181082E000C990BC09762
:102F00008A309105F0F4AAE0A89F9001A99F300DA6
:102F10001124C901330FAA0BBB0B480F591F6A1F9D
:102F20007B1F8281082E000C990BC0978A30910577
:102F300040F4092E000CAA0BBB0B480F591F6A1F47
:102F40007B1F1D3239F470956095509541955F4F08
:102F50006F4F7F4FCB01BA01DF91CF911F91089541
:102F6000FB0101900020E9F73197AF01461B570B99
:102F7000DC01ED91FC910280F381E02D0994CF9367
:102F8000DF93BC018EED97E00E94B017EC016EED6F
:102F900072E08EED97E00E94B0178C0F9D1FDF91BD
:102FA000CF9108958F929F92AF92BF920F931F93EC
:102FB000CF93DF93CDB7DEB7A1970FB6F894DEBFFE
:102FC0000FBECDBF19A2423008F44AE08E010F5D5A
:102FD0001F4F842E912CB12CA12CA50194010E948D
:102FE0000A2DE62FB901CA01EA3004F5E05DD801E7
:102FF000EE938D01232B242B252B79F790E080E095
:10300000109729F0BD018EED97E00E94B017A196B0
:103010000FB6F894DEBF0FBECDBFDF91CF911F91E9
:103020000F91BF90AF909F908F900895E95CDFCF94
:1030300085ED8093BC008091C4049091C504A0915B
:10304000C604B091C7040796A11DB11D23E0B69533
:10305000A795979587952A95D1F72091BC0024FDD7
:1030600003C01092C20408954091C4045091C50455
:103070006091C6047091C704452B462B472B69F31A
:103080000097A105B10541F02AE12A95F1F700C0AA
:103090000197A109B109E1CF8091C3040C944B0DB4
:1030A0001F920F920FB60F9211242F933F938F937D
:1030B0009F93AF93BF9380916E0490916F04A09102
:1030C0007004B091710430916D0426E0230F2D3708
:1030D00058F50296A11DB11D20936D0480936E04D6
:1030E00090936F04A0937004B09371048091720464
:1030F00090917304A0917404B09175040196A11D80
:10310000B11D8093720490937304A0937404B093E0
:103110007504BF91AF919F918F913F912F910F9027
:103120000FBE0F901F90189529E8230F0396A11D3D
:10313000B11DD2CF1F920F920FB60F9211242F9371
:103140003F934F935F936F937F938F939F93AF932F
:10315000BF93EF93FF9382EF95E00E94330AFF91B4
:10316000EF91BF91AF919F918F917F916F915F91FF
:103170004F913F912F910F900FBE0F901F90189578
:103180001F920F920FB60F9211242F938F939F933C
:10319000EF93FF93E0910206F09103068081E091A6
:1031A0000806F091090682FD1BC0908180910B06F4
:1031B0008F5F8F7320910C06821741F0E0910B0610
:1031C000F0E0EE50FA4F958F80930B06FF91EF9150
:1031D0009F918F912F910F900FBE0F901F90189578
:1031E0008081F4CF1F920F920FB60F9211248F930C
:1031F00081E0809346048F910F900FBE0F901F9037
:1032000018951F920F920FB60F9211242F933F9390
:103210004F935F936F937F938F939F93AF93BF93DE
:10322000EF93FF938091B900887F803609F44AC0FC
:10323000F0F5883209F4A7C018F5803109F49BC075
:10324000B8F4882309F4F9C0883009F494C0FF91D8
:10325000EF91BF91AF919F918F917F916F915F910E
:103260004F913F912F910F900FBE0F901F90189587
:10327000883109F488C0803251F78093C00414C0AB
:10328000803409F49DC040F48033B9F38833F9F6F3
:103290008093C00485ECB0C0803509F485C08835C2
:1032A00009F496C0883499F60E941818D0CF88394E
:1032B00009F48CC038F5883729F050F4883611F0BD
:1032C000803729F683E08093C2041092350457C0FA
:1032D000883809F47BC0803919F0803809F0B7CFFD
:1032E00080913504803208F071C0E091350481E0AE
:1032F0008E0F809335048091BB00F0E0EB5EFB4FB6
:1033000080833DC0803B39F0E0F4803A09F479C015
:10331000883A09F09CCF84E08093C2041092140490
:1033200010921304E0917804F0917904099580914A
:10333000130481110FC081E0809313041092F303F2
:1033400009C0803C09F4A6CF883C09F4A3CF883B90
:1033500009F07DCFE091140481E08E0F8093140476
:10336000F0E0ED50FC4F80818093BB0090911404FD
:103370008091130429C080919D048093BB0085EC4B
:103380008093BC0064CF9091BF048091BE049817D5
:1033900058F5E091BF0481E08E0F8093BF04F0E008
:1033A000E256FB4F8081E9CFE091BF0481E08E0FB0
:1033B0008093BF048091BB00F0E0E256FB4F808316
:1033C0009091BF048091BE049817C8F285E8D8CFC9
:1033D000E091BF0481E08E0F8093BF048091BB0019
:1033E000F0E0E256FB4F80838091C10481115CCFF5
:1033F00081E080939C0484EA8093BC001092C20414
:1034000026CF85EC8093BC001092C20480913504D5
:10341000803230F4E0913504F0E0EB5EFB4F108237
:103420006091350470E0E0917604F091770485E1D5
:1034300094E00995109235040ACF1092C00434CF5D
:103440001F920F920FB60F9211248F9381E08093F9
:1034500049048F910F900FBE0F901F901895CF9237
:10346000DF92EF92FF920F931F93CF93DF9310920F
:10347000F5051092F40588EE93E0A0E0B0E08093AB
:10348000F6059093F705A093F805B093F9052BED99
:1034900031E03093F3052093F20525EC30E03093D2
:1034A000FF052093FE0524EC30E0309301062093C5
:1034B000000620EC30E0309303062093020621EC56
:1034C00030E0309305062093040622EC30E0309380
:1034D00007062093060626EC30E030930906209379
:1034E000080610920B0610920C0610920D06109210
:1034F0000E06109292061092910680939306909376
:103500009406A0939506B09396062DEE31E0309385
:10351000900620938F061092E1071092E0078093A7
:10352000E2079093E307A093E407B093E5078FEFDA
:1035300091E09093DF078093DE071092EE071092E0
:10354000ED071092F0071092EF078BE00E94E7085A
:1035500061E08BE00E940609EFE4F2E0E491E09381
:10356000EA07EBE3F2E0E491F0E0EE0FFF1FEA5D23
:10357000FD4F859194919093EC078093EB07109207
:1035800031071092320710923407109233071092CD
:1035900035071092360710923707109238071092AD
:1035A000390710923B0710923A0710923C0710928D
:1035B0003D0710923E0710923F071092400710926D
:1035C000420710924107109243071092440710924D
:1035D000450710924607109247071092490710922C
:1035E000480710924A0710924B0710924C0710920E
:1035F0004D0710924E0710925307109254071092E5
:1036000055071092560710925707109258071092BC
:10361000610710926207109263071092640710927C
:1036200065071092660710926F071092700710924C
:10363000750710927607109277071092780710920C
:103640007D0710927E0710928307109284071092D4
:1036500085071092860710928B0710928C071092A4
:10366000910710929207109293071092940710926C
:10367000990710929A0710929F071092A007109234
:10368000A1071092A2071092A7071092A807109204
:10369000AD071092AE071092AF071092B0071092CC
:1036A000B5071092B60782E08093C6071092C7074D
:1036B0001092C8071092C9071092CB071092CA0740
:1036C0001092CD071092CC071092CE071092CF0720
:1036D0001092D0071092D1071092D2071092D30700
:1036E0001092D4071092D5071092D6071092D707E0
:1036F0001092D8071092D9071092DA071092DB07C0
:103700001092DC071092DD071092B70785E0EAEA15
:10371000F6E0DF011D928A95E9F71092AF0610924C
:10372000B0061092B1061092B20680E68093280788
:1037300080E498E7ADE7B1E080931707909318070E
:10374000A0931907B0931A07109214071092130749
:1037500010921607109215071092270764E170E087
:1037600081E090E00E94C82EEC01892BC1F086E038
:1037700090E0998388838FE390E09B838A831B8A00
:103780001A8A80E490E00E94E42E8C019D838C8351
:10379000892B91F4CE010E94802FD0E0C0E0D0931D
:1037A0009C06C0939B06DF91CF911F910F91FF90D4
:1037B000EF90DF90CF90089580E490E00E94E42E97
:1037C0009F838E83009721F4C8010E94802FE2CF4F
:1037D0002FE3FC012083D801DF961C9201E010E06A
:1037E00090E080E02A813B8182179307B4F4EE8158
:1037F000FF81E00FF11F8083EC81FD81E80FF91F4D
:103800000083000F111F06FF02C0B3E40B272A81BB
:103810003B81022313230196E5CF0130110539F0D6
:103820008C819D810E94802F8E819F81CECF84E3E9
:1038300090E00E94E42E99878887009789F323E01F
:1038400030E03D872C871F870E8723E330E03B87DE
:103850002A87198B088B21E0FC01208343E050E08C
:1038600061E09A0123503109E885F985E40FF51FDD
:1038700032976083E885F9852115310591F1E20FD2
:10388000F31FF080CF010197DC017C91FF2039F11B
:103890000C811D818E819F81DC01AF0DB11D8C914A
:1038A000840F952F911DAA81BB818A179B0774F005
:1038B0008A1B9B0B7C01088002C0F594E7940A9454
:1038C000E2F78A239B238E0D9F1DEFCF800F911F60
:1038D000DC018C918727808321503109CBCF708305
:1038E000FBCFCC80DD8080810E811F81800F912FE6
:1038F000911DDC018C91840F952F911D0A811B81F4
:103900008017910774F0801B910B7C01088002C026
:10391000F594E7940A94E2F7802391238E0D9F1D7E
:10392000EFCFD601A80FB91F8C9180834F5F5F4FF7
:103930004633510509F095CFE885F985E20FF31F6D
:10394000A0818E819F81A80FB92FB11D8C9180839A
:103950002F5F3F4F2433310579F721CFCF93DF938A
:10396000CDB7DEB7C259D1090FB6F894DEBF0FBE8E
:10397000CDBF789484B5826084BD84B5816084BDF8
:1039800085B5826085BD85B5816085BD80916E00FD
:10399000816080936E00109281008091810082602E
:1039A000809381008091810081608093810080916B
:1039B00080008160809380008091B100846080935A
:1039C000B1008091B00081608093B00080917A0056
:1039D000846080937A0080917A00826080937A007C
:1039E00080917A008E7F80937A0080917A0080683F
:1039F00080937A001092C10088E190E029E60FB62A
:103A0000F894A895809360000FBE2093600083E037
:103A10000E94E70861E083E00E94060982E00E94BC
:103A2000E70884E00E94E70885E00E94E70886E056
:103A30000E94E70887E00E94E70860E082E00E94B9
:103A4000060960E084E00E94060960E085E00E94CB
:103A5000060960E086E00E94060960E087E00E94B7
:103A600006098EE00E94E7088FE00E94E70880E1E7
:103A70000E94E70881E10E94E70861E08EE00E9471
:103A8000060961E08FE00E94060961E080E10E9482
:103A9000060961E081E10E9406090E94DC0A109299
:103AA000EE071092ED0790E080E0FC01EE59FE4F2A
:103AB00045915591659174914115514E610571057E
:103AC00009F0CCC1FC01E459FE4F8591949190938B
:103AD000EE078093ED0782EF91E00E94D0106EED2B
:103AE00072E08EED97E00E94B0176EE172E08EED0D
:103AF00097E00E94B01760E071E08EED97E00E94C1
:103B0000B01788E292E00E94BF1761E082E00E9455
:103B1000060961E084E00E94060961E085E00E94F8
:103B2000060961E086E00E94060961E087E00E94E4
:103B3000060964E670E080E090E00E9477098AE27E
:103B400092E00E94BF17C12CD12C7601C39410E0E3
:103B500000E0AA24A394A092C804C092EA041092A0
:103B6000C9041092EB0481E00E946C0D81117CC1AC
:103B700062E472E08EED97E00E94B0173FE03C15E2
:103B800030F06CE172E08EED97E00E94B01740E1FA
:103B9000C701B6010E94D21781E692E00E94BF17CA
:103BA0000F5F1F4F5FEFC51AD50AE50AF50A8FE7C9
:103BB000C816D104E104F10471F681E892E0012B0A
:103BC00011F087E992E00E94BF1760E082E00E9456
:103BD000060960E084E00E94060960E085E00E943A
:103BE000060960E086E00E94060960E087E00E9426
:103BF00006098DE992E00E94BF178FEA92E00E94C9
:103C0000BF1783E38093F10583E08093F0058BE099
:103C10008093EF051092ED0581E08093EC058DE235
:103C20008093EB050E9457010E94E30A0E94140250
:103C300068EE73E080E090E00E94770962ED72E048
:103C400082EF95E00E94B01768EE73E080E090E0AC
:103C50000E947709F89410928000109285001092CB
:103C600084008DE08093810082E080936F0088ED76
:103C700094E1909389008093880078940E94DC0AF4
:103C80000E94DC0A7724739401E082EF95E00E94A1
:103C9000130A181619060CF0E2C282EF95E00E9492
:103CA000F109182F8091CE079091CF07A091D007EE
:103CB000B091D1070196A11DB11D8093CE079093BD
:103CC000CF07A093D007B093D107143209F4A5C24F
:103CD000E091C80715320CF0E5C01A3019F01D301C
:103CE00009F0A9C2EF3008F05AC1F0E0E954F84FEA
:103CF0001082F090B607FF2009F454C12091B70755
:103D0000822F022E000C990B3FEB320F363008F059
:103D1000D5C0C7978295807F9091B807292F092E2B
:103D2000000C330B4FEB490F463008F0CFC0275340
:103D30003109820F9091B50789131EC18091DA076E
:103D40009091DB07A091DC07B091DD070196A11DE2
:103D5000B11D8093DA079093DB07A093DC07B09343
:103D6000DD078091C907882399F08091D20790914F
:103D7000D307A091D407B091D5070196A11DB11D1D
:103D80008093D2079093D307A093D407B093D5071D
:103D9000E090C607EE2009F4A2C091E0E91234C019
:103DA00083E597E00E946E0C81E697E00E946E0C1E
:103DB0008091C907882341F187E0E1E4F7E0A3E3BC
:103DC000B7E001900D928A95E1F787E0E8E4F7E02B
:103DD000AAE3B7E001900D928A95E1F70E94A90944
:103DE00060934F0770935007809351079093520749
:103DF000E0923207E09231078FE697E00E94570C7D
:103E00008DE797E00E94570CC090CC07D090CD076B
:103E1000C114D10411F40C94C527E091CC07F091A2
:103E2000CD0766A177A1D60196968D919C910E94AF
:103E30003530892B11F00C94C527B601C601409688
:103E40000E943E300E94A909F60160A371A382A3DB
:103E500093A375A274A2C2A4D3A4DACF0C9680391E
:103E6000910509F022CE37CE843009F09BCE65E66D
:103E700072E08EED97E00E94B0174FE04C1530F0E5
:103E80006CE172E08EED97E00E94B01740E1C7014F
:103E9000B6010E94D2176EED72E08EED97E00E949F
:103EA000B01780CE1A3209F41DCF1C3209F0C3C1FD
:103EB0008091B50781278093B50714CF215626300E
:103EC00018F48755910926CFC09724CF9156963084
:103ED00018F4275531092DCF205331092ACF81E617
:103EE00097E00E946E0C8091C907882321F187E03A
:103EF000E1E4F7E0A3E3B7E001900D928A95E1F7E2
:103F000087E0E8E4F7E0AAE3B7E001900D928A9534
:103F1000E1F70E94A90960934F07709350078093BF
:103F200051079093520700933207009331078BE8B3
:103F300097E00E94570C8091A3079091A407A0914D
:103F4000A507B091A60780939F079093A007A09321
:103F5000A107B093A2070E94A90960939B077093E1
:103F60009C0780939D0790939E0700939A07009368
:103F7000990787EA97E046CF8091D6079091D707B7
:103F8000A091D807B091D9070196A11DB11D8093CA
:103F9000D6079093D707A093D807B093D907F12CF1
:103FA0000C94C5279091C707911146C061EE72E04D
:103FB00087EB97E00E943530892B41F067EE72E085
:103FC00087EB97E00E943530892BF9F40093C60700
:103FD0008091CA079091CB079093CD078093CC072F
:103FE000C090CC07D090CD07C114D104C1F267EBCB
:103FF00077E0D60196968D919C910E94353097FF7F
:10400000BCC7F60182A593A5E7CF6DEE72E087EB02
:1040100097E00E943530892B41F063EF72E087EB27
:1040200097E00E943530892B19F41092C607D0CF43
:10403000F2E0F093C607CCCFE091C607E23009F476
:1040400048C08091B707882309F443C020E2E29F6B
:10405000F0011124E92B3197E932F10508F039C05C
:10406000EC5CFF4D0C942C2D5D20A020A720AE20F1
:10407000B120DF20E620F32000216920692069209B
:1040800069206920692069206920692069206920E8
:1040900069206920692069206920692069206920D8
:1040A00069206920692069205D209A20A020A7202E
:1040B000AE20B120B820C520D22087EB97E00E9427
:1040C0005D17609367077093680780936907909303
:1040D0006A07E090CC07F090CD07D090C707E114B5
:1040E000F10409F45CCFE091CC07F091CD0766A113
:1040F00077A1D70196968D919C910E943530892B9E
:1041000009F04DCFF70120A531A58D2D90E0821744
:1041100093070CF444CF2817390739F440E150E0F5
:1041200067EB77E0C7010E944530D7019A96ED9082
:10413000FC90D3CF91E0813409F445C090E043C0B6
:1041400061E477E087EB97E00E94D616C2CF91E05A
:10415000833509F090E090934707BBCF68E477E0A0
:10416000F1CF91E0873509F090E090934E07B1CF01
:1041700087EB97E00E945D176093790770937A0749
:1041800080937B0790937C07A4CF87EB97E00E94F6
:104190005D176093870770938807809389079093D2
:1041A0008A0797CF87EB97E00E940F286093590703
:1041B00070935A0780935B0790935C078ACF91E0D6
:1041C00081330CF4BBCF9093C90783CF87EB97E083
:1041D0000E940F286093A3077093A4078093A507FC
:1041E0009093A60776CF87EB97E00E945D176093C8
:1041F000B1077093B2078093B3079093B40769CF68
:1042000087EB97E00E945D17609395077093960780
:1042100080939707909398075CCF1092C8071092ED
:10422000C7071092B507B2E0B093C6071092B60761
:104230001092C9072ACDEE3040F481E08E0F8093B2
:10424000C807F0E0E954F84F10838091B607811158
:104250001CCD8091B50718271093B50716CD0E9485
:10426000080B8091470490914804029709F0E4C438
:104270000E94470C892B09F0DFC40E944F0C97FD68
:10428000DBC40E94A909609355047093560480937F
:104290005704909358048091610781110E94A60EE3
:1042A0000E944F0C80FDC8C40E94470C02970CF07E
:1042B000C3C489EF92E00E94BF1782EF95E00E948D
:1042C000A20AE0910406F091050680818F7E80832A
:1042D000E0910406F09105068081877F8083E0915C
:1042E0000406F091050680818F778083E0910406B3
:1042F000F091050680818F7D808380910C068093EC
:104300000B0662E070E080E090E00E94770960E0D8
:104310008EE00E94060960E08FE00E94060960E0DE
:1043200080E10E94060960E081E10E9406096AE0DE
:1043300070E080E090E00E94770980E293E00E94C4
:10434000BF1761E082E00E94060961E084E00E94FC
:10435000060961E085E00E94060961E086E00E94AE
:10436000060961E087E00E94060964E670E080E0EB
:1043700090E00E9477098EE293E00E94BF170E94AE
:10438000A01282E493E00E94BF1781E090E00E94B7
:10439000E60F60E081E090E00E94F20F82E090E0A2
:1043A0000E94E60F60E082E090E00E94F20F80E160
:1043B0000E94FD0E682F636080E10E945C0E60E049
:1043C00090E080E00E94F20F8EE493E00E94BF171D
:1043D00027E633E247ED50E0209351043093520436
:1043E000409353045093540487E593E00E94BF1711
:1043F00082EA80934C0482E990E090934B0480938E
:104400004A04ECEEF4E08FEFDF011D928A95E9F7A4
:104410000E94F7130E94A90960934D0470934E0403
:1044200080934F04909350040E94A9096B017C0172
:104430000E94A909C257DF4F688379838A839B83CF
:10444000CE58D04084E693E00E94BF17612C809143
:104450004C04681608F06FC3E62DF0E0CD57DF4F2F
:10446000F983E883C358D04020914A0430914B042B
:10447000CB57DF4F39832883C558D0402091510452
:10448000309152044091530450915404A4E6B0E09A
:104490000E94802BE451FB4F4081CB57DF4FA88116
:1044A000B981C558D0404A9F90014B9F300D1124CF
:1044B0004B015C01820E931EA11CB11C9401A5014D
:1044C00060E070E080E090E0AFEF0E949C2E2E371D
:1044D0003A4146405105610571058105910509F094
:1044E00008F46AC2EA968FAEEA97EB969FAEEB9716
:1044F000EC96AFAEEC97ED96BFAEED97EE961FAE95
:10450000EE97EF961FAEEF97C158DF4F1882CF5747
:10451000D040C058DF4F1882C058D040EA962FAD27
:10452000EA97EB963FADEB97EC964FADEC97ED9697
:104530005FADED97EE966FADEE97EF967FADEF978F
:10454000C158DF4F8881CF57D040C058DF4F988186
:10455000C058D0402115314C4A415D43654071053A
:104560008105910509F100F1EA961FAEEA97B1ECD9
:10457000EB96BFAFEB97EAE1EC96EFAFEC97FDE37C
:10458000ED96FFAFED9725E0EE962FAFEE97EF9605
:104590001FAEEF97C158DF4F1882CF57D040C05899
:1045A000DF4F1882C058D040EA96EFACEA97EB96FE
:1045B000FFACEB97EC960FADEC97ED961FADED973A
:1045C000EE96BFADEE97EF96AFADEF97C158DF4FC8
:1045D000F881CF57D040C058DF4FD880C058D04066
:1045E0009701A8016B2F7A2F8F2F9D2D2115344E07
:1045F0004B405445624071058105910509F008F46E
:10460000EBC1E090B306F090B40693EC292E96E04F
:10461000392E2AEA36E0CF57DF4F39832883C15835
:10462000D0408901F101D12C208131814281538117
:10463000648175818681978138962115344E4B406F
:104640005445624071058105910559F050F0DD2017
:1046500041F0D80119968D919C918E159F0509F412
:104660006BC1D3940E5F1F4FB6E0DB12DDCF80919C
:104670002907811108C061E090E080E00E94F20FFC
:1046800081E080932907EA962FADEA97EB963FAD3C
:10469000EB97EC964FADEC97ED965FADED97EE9600
:1046A0006FADEE97EF967FADEF97C158DF4F8881E2
:1046B000CF57D040C058DF4F9881C058D04020938A
:1046C000C3063093C4064093C5065093C606609354
:1046D000C7067093C8068093C9069093CA06FE0168
:1046E000EB59FF4F4F01A12CB12CC12CD12CE12C47
:1046F000F12C00E010E00E948F05C957DF4F28839E
:10470000C758D040C857DF4F3883C858D040C75724
:10471000DF4F4883C958D040752EC657DF4F688396
:10472000CA58D040C557DF4F7883CB58D040C457C4
:10473000DF4F8883CC58D040C357DF4F9883CD5884
:10474000D0400091B3061091B4060E94D611512CAE
:10475000412CD101DC901196EC9011971296FC90AF
:10476000129713960C91139714961C911497159603
:10477000BC91F101C680B780F8E02F0E311C2D2DC1
:104780003E2D4F2D502F612F7B2F8C2D9B2DA0E088
:104790000E94A82E09F4AEC02091B3063091B40651
:1047A000CF57DF4FE881F981C158D040818592858C
:1047B0002817390709F09EC0E296DFAEE297E3962C
:1047C000EFAEE397E496FFAEE497E5960FAFE5977B
:1047D000E6961FAFE697E796BFAFE797E896CFAEAE
:1047E000E897E996BFAEE997CE018F589F4F0E9498
:1047F000A507CE56DF4F8883C259D040E2962FAD31
:10480000E297E3963FADE397E4964FADE497E596E4
:104810005FADE597E6966FADE697E7967FADE797D4
:10482000CE0101964C01C957DF4FA880C758D04030
:10483000C857DF4FB880C858D040C757DF4FC8802F
:10484000C958D040D72CC657DF4FE880CA58D0404F
:10485000C557DF4FF880CB58D040C457DF4F088191
:10486000CC58D040C357DF4F1881CD58D040E89680
:104870008FADE897E9969FADE9970E948F05AA242E
:10488000A394E2962FADE297E3963FADE397E496CB
:104890004FADE497E5965FADE597E6966FADE69789
:1048A000E7967FADE797E8968FADE897E9969FADDD
:1048B000E9972F3F354D41415E47634071058105C2
:1048C000910509F008F4A12CAF92CE56DF4F8880F5
:1048D000C259D040C980DA80EB80FC800D811E81F6
:1048E0002F81388549855A856B857C85C2010E9458
:1048F000EB100F90BFEF4B1A5B0ACF57DF4FE881E9
:10490000F981C158D0403296CF57DF4FF983E88301
:10491000C158D040F6E04F16510409F01ACF8091EB
:10492000B3069091B40660E2009719F0019721F464
:1049300060E881EB0E945C0E109249040E94A90974
:104940004B015C01CD57DF4FE881F981C358D0405E
:10495000E451FB4F8081CB57DF4FE881F981C55887
:10496000D0408E9FB0018F9F700D112490E080E0A9
:104970004AE00E94D2176CE673E08EED97E00E9449
:10498000B017809149048823E1F30E94DC0A0E9459
:10499000A9096B017C010E94A909681979098A0992
:1049A0009B094AE00E94D2176EED72E08EED97E00F
:1049B0000E94B01763944BCDE0E8EA96EFAFEA9718
:1049C000FAE1EB96FFAFEB9726E0EC962FAFEC9772
:1049D000ED961FAEED9792CDE092C306F092C4061D
:1049E0000093C5061093C606B093C706A093C806E9
:1049F000F093C906D092CA0680912907811108C098
:104A000061E090E080E00E94F20F81E0809329074E
:104A1000CE0187589F4F0E94A507782E8091B3063C
:104A20009091B406892B09F05FC0A0900307B09065
:104A30000407C0900507D0900607E0900707F090A4
:104A400008070091090710910A07EA962FADEA9727
:104A5000EB963FADEB97EC964FADEC97ED965FADD7
:104A6000ED97EE966FADEE97EF967FADEF97CE0197
:104A70008B599F4F4C01C158DF4F8881CF57D04091
:104A8000C058DF4F9881C058D0400E948F051F92B8
:104A9000872CA12CA696CFACA697A796DFACA7979C
:104AA000A896EFACA897A996FFACA997AA960FADC8
:104AB000AA97AB961FADAB97AC962FADAC97AD96C2
:104AC0003FADAD97AE964FADAE97AF965FADAF979A
:104AD000E0966FADE097E1967FADE19790E080E0E2
:104AE0000E94EB100F9028CFA0900B07B0900C07FE
:104AF000C0900D07D0900E07E0900F07F0901007C0
:104B00000091110710911207EA962FADEA97EB96E4
:104B10003FADEB97EC964FADEC97ED965FADED9713
:104B2000EE966FADEE97EF967FADEF97DE01AB5946
:104B3000BF4F4D01A0CF60E090E080E00E94F20FF7
:104B400090E080E00E94E60F6FE673E08EED97E064
:104B50000E94B017C701B601C257DF4F28813981C3
:104B60004A815B81CE58D040621B730B840B950B3E
:104B70004AE00E94D2178EE793E00E94BF1783E8B5
:104B800093E00E94BF1760E082E00E94060960E0A7
:104B900084E00E94060960E085E00E94060960E06A
:104BA00086E00E94060960E087E00E94060982E92B
:104BB00093E00E94BF1765E070E080E090E00E9403
:104BC00077090E94140262E070E080E090E00E94A9
:104BD000770961E08EE00E94060961E08FE00E94A3
:104BE000060961E080E10E94060961E081E10E941E
:104BF00006096CE973E08EED97E00E94B0176091B2
:104C00004D0470914E0480914F0490915004009196
:104C10005504109156042091570430915804601B9C
:104C2000710B820B930B4AE00E94D2176EED72E07B
:104C30008EED97E00E94B0170E94A90900916904C7
:104C400010916A0420916B0430916C04601B710B0D
:104C5000820B930B683E73408105910508F463C194
:104C60008091680491E08927809368040E94470C32
:104C70000A9709F0B7C088EC80937C0080917A0095
:104C8000806880937A0064E170E080E090E00E94A8
:104C9000770985E0E82EF12C10E000E080917A00A1
:104CA000806480937A0080917A0086FDFCCF8091A9
:104CB000780090917900080F191F64E170E080E09E
:104CC00090E00E94770941E0E41AF10839F7C80141
:104CD00065E070E00E94F62C072E000C880B990B03
:104CE0000E94842A21EE3AE148E953E40E94D12B44
:104CF0002BE33FED4FE85FE30E943E2C0E94B02C77
:104D000070935F0460935E0464E170E080E090E083
:104D10000E94770983E08093070125E030E070E08E
:104D200060E08091070150E4859FC00111248360F9
:104D300080937C0080917A00806480937A008091D7
:104D40007A0086FDFCCF90917800809179008927C8
:104D500098278927680F791F2150310911F7072EED
:104D6000000C880B990B0E94842A20E030E040EA76
:104D700050E40E943E2C2DEC3CEC4CE85FE30E949A
:104D8000BF2A20E030EC4FE754E40E943E2C2FE88D
:104D900032EC45E850E40E94BF2A20E030E048ECC5
:104DA00052E40E94BF2A0E94B02C70936104609369
:104DB0006004E2E6F4E026E0DF011D922A95E9F7BF
:104DC000072E000C880B990B0E94842A20E030E00B
:104DD00048EC52E40E943E2C02E614E022E044E05B
:104DE0000E94F127A0905E0490905F0410927007DB
:104DF0006091750770917607809177079091780799
:104E00000E94842A26E53EE04DEE5FE30E94BF2A21
:104E100020E030E048EC52E40E943E2C0E94B02C8E
:104E2000C62EB72ED09031070E94470CF82EE92EDF
:104E30000E944F0C182F092F0E94080B0E944E0B46
:104E400082E694E09F938F939F92AF92BF92CF920E
:104E50001F92DF92EF92FF920F931F938091ED05C7
:104E60001F928F9389E594E09F938F938DEA93E04F
:104E70009F938F93E1E0F0E0EC0FFD1FFF93EF9322
:104E80000E945430BE016F5F7F4F8EED97E00E940D
:104E9000B0170E94A9096093690470936A04809313
:104EA0006B0490936C040FB6F894DEBF0FBECDBFB9
:104EB00080916804882309F446C061E082E00E9482
:104EC000060961E084E00E94060961E085E00E9435
:104ED000060961E086E00E94060961E087E00E9421
:104EE000060964E670E080E090E00E9477090E9485
:104EF000A01281E090E00E94E60F60E081E090E087
:104F00000E94F20F82E090E00E94E60F60E082E0F3
:104F100090E00E94F20F80E10E94FD0E682F636016
:104F200080E10E945C0E80E090E0892B11F40C94EB
:104F3000401E0E941F0A882311F40C94401E0E94F8
:104F400000000C94401E60E090E080E00E94F20FB0
:104F500060E082E00E94060960E084E00E940609A9
:104F600060E085E00E94060960E086E00E94060994
:104F700060E087E00E940609D6CF892B11F40C94DB
:104F8000CF1F1092CD071092CC078091C7078F5F7B
:104F90008093C7071092C80781E01A3209F080E0B9
:104FA0008093B607FF2011F40C94451E0E94080B55
:104FB0008091470490914804892B11F00C94451E70
:104FC0008091610781110E94A60E87EF91E00E94F7
:104FD000D0106EED72E08EED97E00E94B0170C9449
:104FE000451EEF920F931F93CF93DF93E80134E0B8
:104FF00047FD34E1042E000C550B57FF03C05195BB
:1050000041955109E32E022F242FAE010E944B2817
:10501000CE01DF91CF911F910F91EF9008951F93D3
:10502000FC0199278827BC01E89411911032E9F31B
:10503000193010F01E30C8F31B3251F01D3249F404
:10504000689406C00E943628610F711D811D911D54
:10505000119110531A30B0F33EF4909580957095ED
:1050600061957F4F8F4F9F4F1F910895592F482F64
:10507000372F262F660F771F881F991F660F771F00
:10508000881F991F620F731F841F951F660F771F5C
:10509000881F991F0895A9E0B0E0E1E5F8E20C94BB
:1050A000912B6A01F22EB02E102FFBE3AF2EA0162B
:1050B00008F41BE31F5F012F27E0AE014F5F5F4F36
:1050C0000E94AA29BC018981982F9970913009F416
:1050D0003FC09BE2E1FC04C09E2D9170E0FC3AC011
:1050E0005E2D5071E82FE87083FF46C084E0911177
:1050F00001C083E0EF2DE81B8F1508F0E0E0D6013A
:105100008E2F20E2552351F1992329F0D6019C934B
:10511000C60101966C0196012D5F3F4FE2FE24C04F
:105120008EE4D6018C9391E411969C93119712967C
:105130008C93D9018E2F90E281111BC0E20FF32FC7
:10514000F11D10828EEF9FEF2996ECE00C94AD2BB1
:105150009DE2C6CF90E2C4CF2D9381508111FCCF48
:10516000CE0ED11CE0E0D0CF8EE6D6018C9391E636
:10517000DBCF9D938150E0CF482F447082FF3DC02C
:1051800084E0911101C083E08F1510F4EF2DE81B2E
:10519000D6018E2F20E2552309F1992329F0D6015B
:1051A0009C93C60101966C0196012D5F3F4FE2FE74
:1051B0001BC089E4D6018C938EE411968C931197D1
:1051C00086E412968C93D9018E2F90E2882309F4FD
:1051D000B5CF9D938150FACF2D9381508111FCCF93
:1051E000CE0ED11CE0E0D9CF89E6D6018C938EE6B5
:1051F00011968C93119786E6E4CF9B0177FF02C04E
:1052000030E020E0A1E0B0E0911102C0B0E0A0E009
:10521000F9013196AE0FBF1F8B2C912CBB2009F4E6
:1052200061C05401EFEFAE1ABE0AAA0DBB1DFA16FB
:105230001B0619F014F04F2D4A1B511188C0E3FCD6
:1052400059C07601A42FB0E2A1114FC0C40ED11CE9
:10525000992309F45BC040E0D6011196F6019083D2
:105260006D01552309F448C0012F060F9A81582F6C
:10527000507184FF03C0913309F4015010160CF0F3
:1052800047C0093008F008E0EEE2FE2E5B01A01AEC
:10529000B10885019194819491082F3F320729F438
:1052A000D601FC92F60131966F016217730794F1F3
:1052B000021713077CF5DB01A21BB30BAA24A394EE
:1052C000B12CAC0EBD1EAA0DBB1D11968C912150A8
:1052D0003109D601119628153905F4F0F6018083BD
:1052E0006D01DBCFB12CA12CA0CFF701B1937F01D1
:1052F000A150AACF9111B0CFD601942F50E302C094
:105300005D9391509111FCCFC40ED11C40E0ACCF05
:1053100001E0BACF80E3DBCF6217730731F4963335
:1053200088F4953311F4552369F0F6018083FD016B
:10533000842F90E2811108C0A40FB11D1C9290E04F
:1053400080E002CF81E3F1CF91938150F3CF9111AF
:1053500083CF8ACF283008F027E03327DA01990F6E
:10536000311D87FD916000966105710539F4326049
:105370002E5F3D9330E32A95E1F708959F3F30F08B
:1053800080387105610509F03C5F3C5F3D939130C9
:1053900008F08068911DDF93CF931F930F93FF92C6
:1053A000EF92192F987F9695E92F96959695E90F8C
:1053B000FF27EE53FF4F99273327EE24FF24A70141
:1053C000E70105900894079428F4360FE71EF81EAD
:1053D000491F511D660F771F881F991F0694A1F75B
:1053E0000590079428F4E70EF81E491F561FC11DAB
:1053F000770F881F991F661F0694A1F705900794E1
:1054000028F4F80E491F561FC71FD11D880F991F7A
:10541000661F771F0694A1F70590079420F4490FA3
:10542000561FC71FD81F990F661F771F881F069426
:10543000A9F784911095177041F0D695C7955795A7
:105440004795F794E7941A95C1F7E8E6F0E0689479
:105450001590159135916591959105907FE2739521
:10546000E118F10A430B560BC90BD009C0F7E10C48
:10547000F11E431F561FC91FD01D7EF4703311F457
:105480008A95E6CFE894015030F0080F0AF400271F
:10549000021708F4202F2395022F7A3328F079E39E
:1054A0007D932A95E9F710C07D932A9589F6069495
:1054B00097956795379517951794E118F10A430B5F
:1054C000560BC90BD00998F023957E9173957A33CA
:1054D00008F070E37C932013B8F77E9170617D93A0
:1054E00030F0839571E37D9370E32A95E1F7112401
:1054F000EF90FF900F911F91CF91DF91992787FD3A
:1055000090950895E89409C097FB3EF49095809596
:10551000709561957F4F8F4F9F4F9923A9F0F92F79
:1055200096E9BB279395F695879577956795B795F7
:10553000F111F8CFFAF4BB0F11F460FF1BC06F5FDD
:105540007F4F8F4F9F4F16C0882311F096E911C0EF
:10555000772321F09EE8872F762F05C0662371F010
:1055600096E8862F70E060E02AF09A95660F771F24
:10557000881FDAF7880F9695879597F908950E9406
:10558000D22A0C94462B0E94382B38F00E943F2BD5
:1055900020F0952311F00C942F2B0C94352B112413
:1055A0000C947A2B0E94572B70F3959FC1F3950FA3
:1055B00050E0551F629FF001729FBB27F00DB11D97
:1055C000639FAA27F00DB11DAA1F649F6627B00D27
:1055D000A11D661F829F2227B00DA11D621F739F10
:1055E000B00DA11D621F839FA00D611D221F749F1E
:1055F0003327A00D611D231F849F600D211D822F65
:10560000762F6A2F11249F5750409AF0F1F088238B
:105610004AF0EE0FFF1FBB1F661F771F881F9150B8
:105620005040A9F79E3F510580F00C942F2B0C940D
:105630007A2B5F3FE4F3983ED4F386957795679590
:10564000B795F795E7959F5FC1F7FE2B880F911DE2
:105650009695879597F9089599278827089597F93A
:105660009F6780E870E060E008959FEF80EC089508
:1056700000240A9416161706180609060895002431
:105680000A9412161306140605060895092E0394AB
:10569000000C11F4882352F0BB0F40F4BF2B11F41F
:1056A00060FF04C06F5F7F4F8F4F9F4F089557FD7E
:1056B0009058440F551F59F05F3F71F04795880F80
:1056C00097FB991F61F09F3F79F087950895121617
:1056D00013061406551FF2CF4695F1DF08C01616C3
:1056E00017061806991FF1CF869571056105089474
:1056F0000895E894BB2766277727CB0197F908958B
:105700000E94C22BA59F900DB49F900DA49F800D69
:10571000911D112408952F923F924F925F926F92A4
:105720007F928F929F92AF92BF92CF92DF92EF9231
:10573000FF920F931F93CF93DF93CDB7DEB7CA1BB2
:10574000DB0B0FB6F894DEBF0FBECDBF09942A88DD
:10575000398848885F846E847D848C849B84AA8485
:10576000B984C884DF80EE80FD800C811B81AA8112
:10577000B981CE0FD11D0FB6F894DEBF0FBECDBFDD
:10578000ED010895A29FB001B39FC001A39F700DCA
:10579000811D1124911DB29F700D811D1124911D39
:1057A00008955058BB27AA270E94E92B0C94462B3A
:1057B0000E94382B38F00E943F2B20F039F49F3F95
:1057C00019F426F40C94352B0EF4E095E7FB0C94B9
:1057D0002F2BE92F0E94572B58F3BA176207730734
:1057E0008407950720F079F4A6F50C94792B0EF434
:1057F000E0950B2EBA2FA02D0B01B90190010C01E1
:10580000CA01A0011124FF27591B99F0593F50F4F8
:10581000503E68F11A16F040A22F232F342F442750
:10582000585FF3CF469537952795A795F040539548
:10583000C9F77EF41F16BA0B620B730B840BBAF018
:105840009150A1F0FF0FBB1F661F771F881FC2F783
:105850000EC0BA0F621F731F841F48F48795779597
:105860006795B795F7959E3F08F0B0CF9395880F51
:1058700008F09927EE0F9795879508950E94522C6E
:105880000C94462B0E943F2B58F00E94382B40F07E
:1058900029F45F3F29F00C942F2B51110C947A2B93
:1058A0000C94352B0E94572B68F39923B1F35523A1
:1058B00091F3951B550BBB27AA2762177307840723
:1058C00038F09F5F5F4F220F331F441FAA1FA9F3B9
:1058D00035D00E2E3AF0E0E832D091505040E695A7
:1058E000001CCAF72BD0FE2F29D0660F771F881F08
:1058F000BB1F261737074807AB07B0E809F0BB0BFB
:10590000802DBF01FF2793585F4F3AF09E3F51050E
:1059100078F00C942F2B0C947A2B5F3FE4F3983E95
:10592000D4F3869577956795B795F7959F5FC9F7F7
:10593000880F911D9695879597F90895E1E0660F78
:10594000771F881FBB1F621773078407BA0720F0F1
:10595000621B730B840BBA0BEE1F88F7E09508955A
:105960000E94B72C6894B1110C947A2B08950E9470
:105970005F2B88F09F5798F0B92F9927B751B0F057
:10598000E1F0660F771F881F991F1AF0BA95C9F7C3
:1059900014C0B13091F00E94792BB1E008950C94BD
:1059A000792B672F782F8827B85F39F0B93FCCF370
:1059B000869577956795B395D9F73EF49095809540
:1059C000709561957F4F8F4F9F4F0895DB018F93A7
:1059D0009F930E94802BBF91AF91A29F800D911D3C
:1059E000A39F900DB29F900D1124089597FB072E51
:1059F00016F4009407D077FD09D00E94B42E07FC5E
:105A000005D03EF4909581959F4F089570956195CE
:105A10007F4F0895A1E21A2EAA1BBB1BFD010DC0EA
:105A2000AA1FBB1FEE1FFF1FA217B307E407F5074E
:105A300020F0A21BB30BE40BF50B661F771F881F2A
:105A4000991F1A9469F760957095809590959B01C0
:105A5000AC01BD01CF010895EE0FFF1F0590F49139
:105A6000E02D0994B7FF0C94802B0E94802B821BA1
:105A7000930B0895DF93CF931F930F939A9DF02D6F
:105A8000219FF00D8B9DF00D8A9DE02DF10D039F60
:105A9000F00D029FE00DF11D4E9DE00DF11D5E9D8C
:105AA000F00D4F9DF00D7F936F93BF92AF925F9378
:105AB0004F93D5010E94C22B8B01AC01D7010E94EC
:105AC000C22BEB01E80FF91FD6010E94892D2F91FF
:105AD0003F91D6010E94C22BC60FD71FE81FF91FA6
